:020000040800F2
:1000000000000220392B0008FD290008012A000801
:10001000FD290008FD290008FD2900080000000056
:10002000000000000000000000000000FD290008A2
:10003000FD29000800000000FD290008BD1400088B
:10004000FD290008FD290008FD290008FD290008F8
:10005000FD290008FD290008FD290008FD290008E8
:10006000FD290008FD290008FD290008FD290008D8
:10007000FD290008FD290008FD290008FD290008C8
:10008000FD290008FD290008FD290008FD290008B8
:10009000FD290008FD290008FD290008FD290008A8
:1000A000FD290008FD290008FD290008FD29000898
:1000B000FD290008FD290008FD290008FD29000888
:1000C000FD290008FD290008FD290008FD29000878
:1000D000FD29000899190008B1190008C91900087C
:1000E000FD290008FD290008FD290008FD29000858
:1000F000FD290008FD290008FD290008FD29000848
:10010000FD290008FD290008FD290008FD29000837
:10011000FD290008FD290008FD290008FD29000827
:10012000FD290008FD290008FD290008FD29000817
:10013000FD290008FD290008FD290008FD29000807
:10014000FD290008FD290008FD290008FD290008F7
:10015000FD290008FD290008FD290008FD290008E7
:10016000FD290008FD290008FD290008FD290008D7
:10017000FD290008FD290008FD290008FD290008C7
:08018000FD290008FD2900081B
:100188000348044B834202D0034B03B1184770471E
:100198007400002074000020000000000548064993
:1001A8000B1AD90F01EBA301491002D0034B03B17D
:1001B80018477047740000207400002000000000F9
:1001C80010B5064C237843B9FFF7DAFF044B13B197
:1001D8000448AFF300800123237010BD780000208D
:1001E800000000001048000808B5044B1BB1044982
:1001F8000448AFF30080BDE80840CFE700000000E6
:100208007C0000201048000851EC100BF8B5C1F331
:100218000A53A3F2FF35132D10EE106A0C4632DC98
:10022800002D1EDB364F2F4101EA070303432FD071
:1002380031A3D3E9002300F0E9FA0022002300F0FB
:100248002BFF48B1002C04DD4FF4801343FA05F569
:100258002C4424EA070400262346324643EC102B9C
:10026800F8BD25A3D3E9002300F0D0FA002200232B
:1002780000F012FF0028EFD0002C39DB264333D0E2
:10028800204C0026E8E7332D05DDB5F5806F23D037
:1002980041EC100BF8BDA3F213434FF0FF37DF40DA
:1002A8000742F5D014A3D3E9002300F0AFFA0022E7
:1002B800002300F0F1FE0028CED0002C09DD142D1B
:1002C80014D00123C5F1340503FA05F5AE1928BF8A
:1002D800E41826EA0706BFE710EE102A0B4600F0DE
:1002E80095FA41EC100BF8BD3446B5E70134F0E758
:1002F80000264FF00044AFE79C7500883CE4377E49
:10030800FFFF0F000000F03F51EC100BF8B5C1F3F0
:100318000A53A3F2FF35132D10EE106A0C4630DC99
:10032800002D1EDB384F2F4101EA070303432DD070
:1003380033A3D3E9002300F069FA0022002300F078
:10034800ABFE48B1002C04DA4FF4801343FA05F5EC
:100358002C4424EA070400262346324643EC102B9B
:10036800F8BD27A3D3E9002300F050FA00220023A8
:1003780000F092FE0028EFD0002C29DB002634463E
:10038800EAE7332D05DDB5F5806F19D041EC100B88
:10039800F8BDA3F213434FF0FF37DF400742F5D013
:1003A80017A3D3E9002300F031FA0022002300F05C
:1003B80073FE0028D0D0002C13DB26EA0706CBE713
:1003C80010EE102A0B4600F021FA41EC100BF8BD94
:1003D80024F000430D4A1E43002E18BF1446002681
:1003E800BAE7142D08D00123C5F1340503FA05F541
:1003F800AE1928BFE418E0E70134DEE7AFF3008068
:100408009C7500883CE4377EFFFF0F000000F0BFBA
:1004180038B52DED028B55EC104B00F033F8184B26
:10042800B0EE408AF0EE608A93F9003001330DD0C7
:1004380022462B462046294600F038FE30B90022D5
:1004480000232046294600F009FE30B9B0EE480ADC
:10045800F0EE680ABDEC028B38BD00F0DFF8002230
:100468000023212101601046194600F0AFFC41EC41
:10047800180BB0EE480AF0EE680ABDEC028B38BDE6
:10048800000000202DE9F041634A55EC104BAA43C7
:1004980000F09F80002D10EE10CA2B4654DD291560
:1004A80063D0C3F31303A1F2FF37C90743F48013E2
:1004B80004D45B0003EBDC734FEA4C0C4FEADC72AC
:1004C800002602EB43037F104FEA4C0C4FF0160E48
:1004D80034464FF40012A118994202DC5B1A8C18BA
:1004E80016445B00BEF1010E03EBDC734FEA5202C7
:1004F8004FEA4C0CEFD1754620204FF000420AE03D
:1005080044D04FEADC71013801EB43034FEA4C0C4D
:100518004FEA520243D0A34202EB0E01F0DD00295C
:1005280001EB020E0ADBA0461B1B614588BF03F1E5
:10053800FF33ACEB010C15444446E2E7BEF1000F73
:10054800F1DB04F10108EFE725F00042224338D03F
:10055800002D4ED129464FEADC22153913464FEAC1
:100568004C5C002AF7D0D60250D400205B00DD0294
:10057800044600F10100F9D51A4663460CFA00FC5E
:10058800C0F12000C340091B13438AE76145B8D86E
:10059800002901EB020ED1DB98460023C9E753EA94
:1005A8000C0310D168087110F30701F17F5101F5B0
:1005B800001148BF40F0004001EB0753024643ECEE
:1005C800102BBDE8F0816A1C16BF681C0136400874
:1005D800E9E710EE102A10EE100A2B46294600F023
:1005E800CBFA22462B4600F011F941EC100BBDE87E
:1005F800F08110EE102A2046294600F005F902463F
:100608000B4600F0E3FB41EC100BDAE763462020D1
:100618004FF0FF34B6E700BF0000F07F014B1868C9
:10062800704700BF04000020844641EA000313F02D
:1006380003036DD1403A41D351F8043B40F8043BE1
:1006480051F8043B40F8043B51F8043B40F8043BA4
:1006580051F8043B40F8043B51F8043B40F8043B94
:1006680051F8043B40F8043B51F8043B40F8043B84
:1006780051F8043B40F8043B51F8043B40F8043B74
:1006880051F8043B40F8043B51F8043B40F8043B64
:1006980051F8043B40F8043B51F8043B40F8043B54
:1006A80051F8043B40F8043B51F8043B40F8043B44
:1006B80051F8043B40F8043B403ABDD2303211D3E4
:1006C80051F8043B40F8043B51F8043B40F8043B24
:1006D80051F8043B40F8043B51F8043B40F8043B14
:1006E800103AEDD20C3205D351F8043B40F8043BE4
:1006F800043AF9D2043208D0D2071CBF11F8013BE2
:1007080000F8013B01D30B8803806046704700BFA7
:10071800082A13D38B078DD010F003038AD0C3F1B6
:100728000403D21ADB071CBF11F8013B00F8013B98
:1007380080D331F8023B20F8023B7BE7043AD9D357
:10074800013A11F8013B00F8013BF9D20B7803702C
:100758004B7843708B78837060467047830730B559
:1007680048D0541E002A3FD0CAB2034601E0013CDB
:100778003AD303F8012B9D07F9D1032C2DD9CDB21B
:1007880045EA05250F2C45EA054536D9A4F110029E
:1007980022F00F0C03F1200EE6444FEA121C03F17D
:1007A800100242E9045542E9025510327245F8D167
:1007B8000CF1010214F00C0F03EB021204F00F0C01
:1007C80013D0ACF1040323F003030433134442F8B9
:1007D800045B9342FBD10CF003042CB1CAB21C4455
:1007E80003F8012B9C42FBD130BD64461346002C14
:1007F800F4D1F9E703461446BFE71A46A446E0E7F2
:1008080081F0004102E000BF83F0004330B54FEAB9
:1008180041044FEA430594EA050F08BF90EA020F26
:100828001FBF54EA000C55EA020C7FEA645C7FEAB9
:10083800655C00F0E2804FEA5454D4EB5555B8BFDC
:100848006D420CDD2C4480EA020281EA030382EA4D
:10085800000083EA010180EA020281EA0303362DDF
:1008680088BF30BD11F0004F4FEA01314FF4801CB2
:100878004CEA113102D0404261EB410113F0004FC4
:100888004FEA03334CEA133302D0524263EB43037B
:1008980094EA050F00F0A780A4F10104D5F1200E19
:1008A8000DDB02FA0EFC22FA05F2801841F1000174
:1008B80003FA0EF2801843FA05F359410EE0A5F148
:1008C80020050EF1200E012A03FA0EFC28BF4CF079
:1008D800020C43FA05F3C01851EBE37101F000452F
:1008E80007D54FF0000EDCF1000C7EEB00006EEB3C
:1008F8000101B1F5801F1BD3B1F5001F0CD34908C6
:100908005FEA30004FEA3C0C04F101044FEA44521C
:1009180012F5800F80F09A80BCF1004F08BF5FEAA3
:10092800500C50F1000041EB045141EA050130BD83
:100938005FEA4C0C404141EB0101013C28BFB1F595
:10094800801FE9D291F0000F04BF01460020B1FAE0
:1009580081F308BF2033A3F10B03B3F120020CDAB3
:100968000C3208DD02F1140CC2F10C0201FA0CF091
:1009780021FA02F10CE002F11402D8BFC2F1200CF6
:1009880001FA02F120FA0CFCDCBF41EA0C019040AC
:10099800E41AA2BF01EB0451294330BD6FEA0404F5
:1009A8001F3C1CDA0C340EDC04F11404C4F12002E0
:1009B80020FA04F001FA02F340EA030021FA04F3F2
:1009C80045EA030130BDC4F10C04C4F1200220FA49
:1009D80002F001FA04F340EA0300294630BD21FA87
:1009E80004F0294630BD94F0000F83F4801306BF4D
:1009F80081F480110134013D4EE77FEA645C18BF41
:100A08007FEA655C29D094EA050F08BF90EA020FD7
:100A180005D054EA000C04BF1946104630BD91EACF
:100A2800030F1EBF0021002030BD5FEA545C05D1D2
:100A38004000494128BF41F0004130BD14F5800411
:100A48003CBF01F5801130BD01F0004545F0FE4185
:100A580041F470014FF0000030BD7FEA645C1ABFBA
:100A6800194610467FEA655C1CBF0B46024650EAF1
:100A7800013406BF52EA033591EA030F41F400211D
:100A880030BD00BF90F0000F04BF0021704730B5A3
:100A98004FF4806404F132044FF000054FF0000178
:100AA80050E700BF90F0000F04BF0021704730B539
:100AB8004FF4806404F1320410F0004548BF40420E
:100AC8004FF000013EE700BF42004FEAE2014FEA63
:100AD80031014FEA02701FBF12F07F4393F07F4F3E
:100AE80081F06051704732F07F4208BF704793F041
:100AF8007F4F04BF41F40021704730B54FF4607454
:100B080001F0004521F000411CE700BF50EA010256
:100B180008BF704730B54FF000050AE050EA0102FF
:100B280008BF704730B511F0004502D5404261EB6F
:100B380041014FF4806404F132045FEA915C3FF4B0
:100B4800D8AE4FF003025FEADC0C18BF03325FEA4D
:100B5800DC0C18BF033202EBDC02C2F1200300FAFE
:100B680003FC20FA02F001FA03FE40EA0E0021FA23
:100B780002F11444BDE600BF70B54FF0FF0C4CF411
:100B8800E06C1CEA11541DBF1CEA135594EA0C0FC3
:100B980095EA0C0F00F0DEF82C4481EA030621EAFE
:100BA8004C5123EA4C5350EA013518BF52EA033539
:100BB80041F4801143F4801338D0A0FB02CE4FF0EB
:100BC8000005E1FB02E506F00042E0FB03E54FF01B
:100BD8000006E1FB03569CF0000F18BF4EF0010E13
:100BE800A4F1FF04B6F5007F64F5407404D25FEA0F
:100BF8004E0E6D4146EB060642EAC62141EA5551C2
:100C08004FEAC52040EA5E504FEACE2EB4F1FD0C03
:100C180088BFBCF5E06F1ED8BEF1004F08BF5FEA81
:100C2800500E50F1000041EB045170BD06F0004633
:100C380046EA010140EA020081EA0301B4EB5C04E0
:100C4800C2BFD4EB0C0541EA045170BD41F48011D8
:100C58004FF0000E013C00F3AB8014F1360FDEBFFD
:100C6800002001F0004170BDC4F10004203C35DAD9
:100C78000C341BDC04F11404C4F1200500FA05F35C
:100C880020FA04F001FA05F240EA020001F00042FD
:100C980021F0004110EBD37021FA04F642EB060173
:100CA8005EEA430E08BF20EAD37070BDC4F10C049D
:100CB800C4F1200500FA04F320FA05F001FA04F261
:100CC80040EA020001F0004110EBD37041F100014D
:100CD8005EEA430E08BF20EAD37070BDC4F1200558
:100CE80000FA05F24EEA020E20FA04F301FA05F2C0
:100CF80043EA020321FA04F001F0004121FA04F268
:100D080020EA020000EBD3705EEA430E08BF20EA37
:100D1800D37070BD94F0000F0FD101F00046400071
:100D280041EB010111F4801F08BF013CF7D041EAF3
:100D3800060195F0000F18BF704703F000465200F7
:100D480043EB030313F4801F08BF013DF7D043EAC8
:100D58000603704794EA0C0F0CEA135518BF95EA7E
:100D68000C0F0CD050EA410618BF52EA4306D1D105
:100D780081EA030101F000414FF0000070BD50EA24
:100D8800410606BF1046194652EA430619D094EAAE
:100D98000C0F02D150EA013613D195EA0C0F05D198
:100DA80052EA03361CBF104619460AD181EA0301EC
:100DB80001F0004141F0FE4141F470014FF00000A4
:100DC80070BD41F0FE4141F4780170BD70B54FF03F
:100DD800FF0C4CF4E06C1CEA11541DBF1CEA1355BF
:100DE80094EA0C0F95EA0C0F00F0A7F8A4EB0504A1
:100DF80081EA030E52EA03354FEA013100F0888098
:100E08004FEA03334FF0805545EA131343EA126360
:100E18004FEA022245EA111545EA10654FEA002615
:100E28000EF000419D4208BF964244F1FD0404F5CE
:100E3800407402D25B084FEA3202B61A65EB03052A
:100E48005B084FEA32024FF480104FF4002CB6EBE7
:100E5800020E75EB030E22BFB61A754640EA0C0067
:100E68005B084FEA3202B6EB020E75EB030E22BFA7
:100E7800B61A754640EA5C005B084FEA3202B6EBE8
:100E8800020E75EB030E22BFB61A754640EA9C00A7
:100E98005B084FEA3202B6EB020E75EB030E22BF77
:100EA800B61A754640EADC0055EA060E18D04FEA35
:100EB800051545EA16754FEA06164FEAC30343EAD5
:100EC80052734FEAC2025FEA1C1CC0D111F4801FA2
:100ED8000BD141EA00014FF000004FF0004CB6E79B
:100EE80011F4801F04BF01430020B4F1FD0C88BF3A
:100EF800BCF5E06F3FF6AFAEB5EB030C04BFB6EB45
:100F0800020C5FEA500C50F1000041EB045170BD37
:100F18000EF0004E4EEA113114EB5C04C2BFD4EB64
:100F28000C0541EA045170BD41F480114FF0000EE8
:100F3800013C90E645EA060E8DE60CEA135594EA64
:100F48000C0F08BF95EA0C0F3FF43BAF94EA0C0F67
:100F58000AD150EA01347FF434AF95EA0C0F7FF4DC
:100F680025AF104619462CE795EA0C0F06D152EA30
:100F780003353FF4FDAE1046194622E750EA410614
:100F880018BF52EA43067FF4C5AE50EA41047FF425
:100F98000DAF52EA43057FF4EBAE12E74FF0FF3C8A
:100FA80006E000BF4FF0010C02E000BF4FF0010C5B
:100FB8004DF804CD4FEA410C7FEA6C5C4FEA430CD4
:100FC80018BF7FEA6C5C1BD001B050EA410C0CBF23
:100FD80052EA430C91EA030F02BF90EA020F002085
:100FE800704710F1000F91EA030F58BF994208BFEC
:100FF80090422CBFD8176FEAE37040F001007047A9
:101008004FEA410C7FEA6C5C02D150EA013C07D1FF
:101018004FEA430C7FEA6C5CD6D152EA033CD3D04A
:101028005DF8040B704700BF8446104662468C4644
:101038001946634600E000BF01B5FFF7B7FF002877
:1010480048BF10F1000F01BD4DF808EDFFF7F4FFA0
:101058000CBF012000205DF808FB00BF4DF808ED2B
:10106800FFF7EAFF34BF012000205DF808FB00BF4E
:101078004DF808EDFFF7E0FF94BF012000205DF870
:1010880008FB00BF4DF808EDFFF7CEFF94BF012025
:1010980000205DF808FB00BF4DF808EDFFF7C4FF1E
:1010A80034BF012000205DF808FB00BF4FEA410C67
:1010B8007FEA6C5C02D150EA013C0AD14FEA430C4A
:1010C8007FEA6C5C02D152EA033C02D14FF0000087
:1010D80070474FF00100704700F0F4B9B0B138B56F
:1010E800836804468BB101F0A3FC09490B6843B13E
:1010F800656802E019461B681BB15A68AA1A002ADB
:10110800F8DA23600C6080F3108838BD704700BFA0
:101118009800002098B110B5044601F089FC084AEF
:1011280013681BB908E01A461B682BB19C42FAD118
:10113800216811600023236080F3108810BD704778
:1011480098000020024A034B002010601860704786
:101158009800002094000020144B2DE9F041D3F8AA
:101168000080B8F1000F19D1114F0FE0666800F048
:10117800A9F9301A00280FDC23683B606068C4F8BE
:10118800008085F31088A368984748B901F050FC9F
:101198003C680546002CE9D185F31088BDE8F0814C
:1011A80060602046FFF79AFFF0E700BF9400002038
:1011B80098000020014B1868704700BF9400002079
:1011C800032807D8044BC0EBC00003EB80000023C2
:1011D800C0E90433704700BFA8000020064B074849
:1011E8000022C3E90422C3E90B22C3E91222C3E99E
:1011F8001922FFF78FBF00BFA80000209C00002025
:10120800032809D8054BC0EBC00003EB80004069F8
:10121800003818BF0120704700207047A800002040
:1012280002289DBF024B03EB0010C07800207047D6
:1012380018010020022806D8034B03EB00100122F6
:1012480000230271C370704718010020022804D8D7
:10125800024B03EB001000220271704718010020B6
:10126800022804D8024B03EB0010C0E902127047B1
:1012780018010020F8B5104E104C3378013307469A
:10128800337004F14005637863B1A37853B1237BCD
:10129800A28831785BB991422CBF002101212078C6
:1012A80000F0CEF91034AC42EDD1F81CF8BD9142F3
:1012B80034BF00210121F2E7880100204801002005
:1012C8000C4B002203F1400CFF204FF47A711A7086
:1012D8005A709A709A80D88099601A73103363454F
:1012E800F5D1054B054906481A60C3E901200A7083
:1012F80000207047480100208C0100209801002040
:101308007D120008032820D810B50C4601B3124AF4
:101318000101034602EB03132078505461682289C7
:10132800DA809960A17A19730122003918BF012166
:101338005A7000F04DF9E07A00B910BD2078616864
:10134800002200F091F9002010BD4FF0FF307047E7
:101358004FF0FF3010BD00BF48010020032818D807
:1013680008B5124B002903EB001214BF012100211C
:101378004FEA0010917003D00D4B1A7852B108BD96
:10138800117B185C0039BDE8084018BF012100F046
:1013980057B9704701221A70FFF79EFE054A431C91
:1013A80053601046BDE80840FFF798BE480100208A
:1013B800980100208C010020032820D8B5EEC00A2F
:1013C800F1EE10FA1CD4F7EE007AB4EE670AF1EEEB
:1013D80010FAC8BFB0EE670A0B4B03EB0010C388C6
:1013E80007EE903AF8EEE77A27EE800ABCEEC00ADC
:1013F80010EE102A92B2934228BF1346838070479A
:101408009FED020AE8E700BF480100200000000045
:10141800244AD2F8003843F4803310B4C2F80038B4
:10142800D2F800389903FBD5D2F840381E491F4836
:1014380043F08053C2F840380B6840F2057443F417
:1014480080430B60C2F8004CC2F80408D2F8003898
:1014580043F0807301F5E031C2F80038D1F8003864
:101468009B01FBD54FF41443C1F80838D1F808386C
:101478000C4A23F0030343F00203C1F80838D2F8FA
:10148800083803F00C03082BF9D14FF0E023084883
:1014980058610021072299615DF8044B1A6100F038
:1014A80029B800BF003002400070004008544007CF
:1014B8003F900200024A136801331360704700BF6F
:1014C8009C010020094B4FF0E02118684B6989699D
:1014D8004FF47A725B1A064902FB03F302FB00F031
:1014E800A1FB032300EBD330704700BF9C01002011
:1014F80009A4EE31044AD2F830386FEA53236FEA70
:101508004323C2F830387047003002408F285BD838
:101518002E4A030952F82330002B55D02DE9F0410B
:1015280000F00F02EFF3108E72B64FF0030C1D6837
:101538000E7857000CFA07FC25EA0C0506FA07F4A2
:101548002C431C605C684D784FF0010808FA02F8DB
:1015580024EA0804954025435D609C688D7824EA58
:101568000C04BD4025439D60DC6824EA0C0CCC7853
:10157800BC4044EA0C04022EDC6014B203D08EF3A3
:101588001088BDE8F08100070ED40A79186AA40013
:101598000F21A24001FA04F420EA040414431C6257
:1015A8008EF31088BDE8F0810979586A083A9200EC
:1015B8000F24914004FA02F220EA02020A435A6216
:1015C8008EF31088BDE8F081704700BF44490008D9
:1015D80000B58F2883B003460BD802090C4850F891
:1015E800222032B103F00F0081B1012101FA00F08D
:1015F8009061084A92E8030000908DF8041018469C
:101608006946FFF783FF03B05DF804FB1030ECE791
:10161800444900082848000800B583B00023032285
:1016280069468DF800208DF801308DF802308DF86C
:1016380003308DF80430FFF769FF03B05DF804FB51
:101648008F284FEA10130AD8064A52F8233033B1CC
:1016580000F00F0021B1012202FA00F098617047F2
:101668001030F8E74449000800B58F2883B00346D6
:101678000BD801090C4850F8211031B103F00F00C4
:1016880082B1012202FA00F08861084A92E8030058
:1016980000908DF8041018466946FFF737FF03B02D
:1016A8005DF804FB1030ECE74449000828480008BE
:1016B80010B41F4AD2F8443883B043F48073002131
:1016C800C2F844380091009B632B06DC00BF009BE6
:1016D80001330093009B632BF8DD164B00224FF477
:1016E80080614FF48034C3F804436FF07F405A6040
:1016F80099606FF04041D8601961DA621A635A63E1
:10170800996841F0010199600192019BB3F57A7FD4
:1017180007DA00BF019B01330193019BB3F57A7F80
:10172800F7DB054B01221A7003B05DF8044B7047D4
:101738000030024000200140A0010020024B1B782D
:101748000BB9FFF7B5BF7047A001002030B5224B99
:101758001B7883B00D46002B39D0030900F00F0425
:1017680005D1030709D54FF0FF3003B030BD012B79
:1017780016D110F00E0FF6D10834FFF74DFF092CE3
:1017880015DC164A04EB440411690723A34021EA37
:10179800030105FA04F40C430020146103B030BDC2
:1017A800022BE0D1052CDED80A34FFF735FF0B4AAF
:1017B8000A3CD16804EB44040723A34021EA03014F
:1017C80005FA04F40C430020D46003B030BD019046
:1017D800FFF76EFF0198C0E7A0010020002001403C
:1017E800122837D810B51D4B1B7882B00446002B41
:1017F8002DD0EFF3108C72B6194900230B604C639F
:101808008B6843F080438B60086810F0020008BFC3
:10181800642214D10190019B292B06DC00BF019B97
:1018280001330193019B292BF8DD0B689B0706D434
:10183800013AEFD18CF310886FF0010005E0084BF6
:10184800D86C8CF31088C0F30B0002B010BDFFF702
:101858002FFFCEE74FF0FF30704700BFA0010020F8
:1018680000200140020900F00F0304D102070AD545
:101878004FF0FF307047012A08D0022AF8D1052B13
:10188800F6D80A33DBB21846FFF7AABF10F00E0FDE
:10189800EED10833DBB2F6E7374B1A68136810B499
:1018A8009C061FD4180617D5D168090614D53349E4
:1018B800D1F8080100285AD0D1F804010C5CD1F8FD
:1018C80004010130C0B2C1F80401D1F80801E4B242
:1018D8000138C1F8080154601B0718BF53685DF848
:1018E800044B704726495468D1F80801FF285FFA6D
:1018F80084FC0ED8D1F8000101F800C0D1F800012D
:101908000130C0B2C1F80001D1F808010130C1F8B6
:1019180008011C4908780028C4D1BCF10A0F13D06B
:10192800BCF10D0F10D01849BCF1080F086818D089
:10193800BCF17F0F15D07E28B4D80868134C04F882
:1019480000C001300860ADE70F480468002CA9D03A
:1019580000680E4C4FF0000C04F800C0012008701D
:10196800A0E700289ED00868013808609AE7D16887
:1019780021F08001D160AFE7680000203803002023
:101988002C0200202802002024020020A4010020AC
:10199800034A044B12689A4200D07047FFF77CBF95
:1019A8006800002000100140034A044B12689A4264
:1019B80000D07047FFF770BF680000200044004067
:1019C800034A044B12689A4200D07047FFF764BF7D
:1019D8006800002000480040002800F0A2802DE99F
:1019E800F0410378022B86B0044600F29780FFF797
:1019F80081FD4D4A4D484E494E4E4F4D0023C2F889
:101A08000031C2F80431C2F808314C4AC2F800313A
:101A1800C2F80431C2F8083122780360012A0B7039
:101A280077D0022A70D0464A326025232B7023785B
:101A3800012B61D0022B57D0002B31D0002301930A
:101A4800019B632B09DC00BF019B01330193019BC0
:101A5800632BF8DD2378022B2ED933683948384EAA
:101A6800394A6168B34218BF0246002402EB5102AA
:101A7800B2FBF1F242F22C01DC6028781C615C6157
:101A88009A601C61D960402100F0CCFF287800F0F2
:101A9800BBFF2E4B01221A70204606B0BDE8F0812C
:101AA8002B49D1F8442842F01002C1F844280022FA
:101AB8000192019A632AC6DD264F2749274A11F861
:101AC800038097E8030002908DF80C10D05C02A9FF
:101AD800FFF71CFD97E8030004908DF814104046AA
:101AE80004A9FFF713FDB8E71949D1F8402842F4D3
:101AF8008022C1F84028DAE71549D1F8402842F495
:101B08000032C1F84028D2E7154A326027232B70EB
:101B18008DE7144A326026232B7088E76FF00100A6
:101B2800BBE74FF0FF3070472C0200202402002052
:101B380028020020680000206C00002038030020E4
:101B48000010014080DE800200BD0105A1010020D7
:101B580000300240384800086C490008684900080D
:101B6800004800400044004000B583B000224FF414
:101B7800E13368468DF800200193FFF72DFF03B08D
:101B88005DF804FBF0B1E9B1114B1B78EBB1114BD7
:101B980000B500F1FF3E18684FF0000C0E4B01E055
:101BA800013B0CD002681206FAD50CF1010C1EF8A4
:101BB800013F43606145F1D108465DF804FB60468A
:101BC8005DF804FB4FF0FF3070476FF0010070477D
:101BD800A101002068000020A0860100084B1B78A6
:101BE8005BB1084A084B116801E0013B05D00A685F
:101BF8001206FAD54860002070474FF0FF30704752
:101C0800A101002068000020A08601002DE9F04312
:101C1800904685B01F4610BB4FF03009012A8DF859
:101C2800049046DD012501AE44463846013CFFF7E5
:101C3800D5FFA542F9DBA8EB0507A845D8BF0127C2
:101C4800013D741901E014F8019D4846FFF7C6FFED
:101C5800A642F8D1781C284405B0BDE8F08301AE4F
:101C68003446012309E05FFA8EFC81421D4604F8E0
:101C780001CB03F1010314D81046B0FBF1F201FBCC
:101C8800120CBCF1090F0CF1300EECD90CF1570C09
:101C98005FFA8CFC81421D4604F801CB03F1010375
:101CA800EAD945450ADA05F110036B4413F80D9C8F
:101CB800BAE74846FFF792FF0120CDE705F1100388
:101CC8006B44002713F80D9CBAE700BF60B1017898
:101CD80041B10346C0F1010C0CEB030113F8012FCD
:101CE800002AF9D1FFF74EBF4FF0FF30704700BF11
:101CF80018B311B3144A127812B3F8B5134D2A78F1
:101D080002F0FF04BAB10346EFF3108772B6104E23
:101D18003468A14298BF01F1FF3424B10D4922462D
:101D2800FEF782FC0346002232601A552A7087F3B8
:101D380010882046F8BD2046F8BD4FF0FF307047A8
:101D48006FF00100704700BFA101002028020020A9
:101D580024020020A4010020024B1878003818BF84
:101D680001207047280200200FB4F0B585B00A9E04
:101D7800002E00F0AE80584B1B78002B00F0A68098
:101D880030780BAB039300283DD0002505E0FFF722
:101D980025FF013601353078B0B32528F7D17078A2
:101DA800302837D0741C2023A0F13001CAB2092A88
:101DB8004FF000020CD814F8010F02EB820201EB7D
:101DC8004202A0F130015FFA81FCBCF1090FF2D99F
:101DD800252869D05838C1B220291FD820281DD8F5
:101DE800DFE800F0331C1C1C1C1C1C1C1C1C1C3CAD
:101DF800251C1C1C1C251C1C1C1C1C1C1C1C1C44E1
:101E08001C591C1C33000546284605B0BDE8F040A7
:101E180004B070470346B41CB078C5E72520FFF727
:101E2800DDFE2078FFF7DAFE0235661CB3E703997A
:101E38000E680431002E03913ADB002730460A2150
:101E4800FFF7E4FE38440544EFE70399081D0390C3
:101E580008681021FFF7DAFE0544E6E7039B1A1D20
:101E6800187803920135FFF7B9FEDEE7039B1E6879
:101E780004330393002ED8D030780028D5D0C6F18B
:101E880001031D44FFF7AAFEAB1916F8010F00283D
:101E9800F8D11D46C9E70399081D039008680A216F
:101EA800FFF7B4FE0544C0E7FFF798FE0135BCE72D
:101EB8002D20CDE90023FFF791FEDDE900237642CE
:101EC80012B1013A0127B9E70127B7E76FF0010519
:101ED8009AE74FF0FF3597E7A101002008B52022C7
:101EE80003480021FEF73AFC024B00221A8008BD85
:101EF800481500208815002010B40F4B1A782AB115
:101F08005A7800208AB15DF8044B70470B4C0821C1
:101F1800204604EB021C2144CCE90101CCF80C104A
:101F28001101605001219954EDE70548182101225B
:101F3800A0F11004EDE700BF881500206815002007
:101F480078150020000000002DE9F04755EC104BF3
:101F58002DED028B8246002210EE100A002329463E
:101F6800FFF786F8002840F0CD80DAE902672246BC
:101F78002B4630463946FFF77BF808B134463D46D4
:101F88000022002320462946FFF786F800283AD089
:101F9800DAE90A670022002330463946FFF77CF861
:101FA800002800F0838032463B4620462946FFF74A
:101FB80055F808B126462F46DAE906233046394651
:101FC800FEF7DAFD32463B46FEF7D6FDDAE9042392
:101FD8008046894630463946FEF7CEFD02460B4616
:101FE80040464946FEF712FC00220023FEF70EFC8D
:101FF800324641EC180B3B4620462946FEF704FCC6
:1020080004460D4601E09FED468B00220023204642
:102018002946FFF741F800284AD10022002320462C
:102028002946FFF739F838B9B0EE480AF0EE680AE1
:10203800BDEC028BBDE8F087DAE90E6700220023C9
:1020480030463946FFF728F80028EDD022462B46BF
:1020580030463946FFF720F800285DD0DAE9082332
:1020680020462946FEF788FDDAE9062306460F468C
:1020780020462946FEF780FD22462B46FEF77CFDCA
:1020880002460B4630463946FEF7BEFB02460B4673
:1020980051EC180BFEF7BAFB41EC180BB0EE480AEE
:1020A800F0EE680ABDEC028BBDE8F0879FED1C8B53
:1020B800DAE90C670022002330463946FEF7ECFFC8
:1020C8000028B9D022462B4630463946FEF7E4FFB1
:1020D80008B126462F46DAE9082330463946FEF786
:1020E8004BFD02460B4651EC180BFEF78FFB3246B0
:1020F80041EC180B3B4620462946FEF785FB044673
:102108000D468AE79FED068BB0EE480AF0EE680AA6
:10211800BDEC028BBDE8F08734463D469EE700BF24
:102128000000000000000000F8B504460D46FFF767
:102138000BFF57EC106B10EE100AD4E91823394640
:10214800FEF71AFDD4E91023FEF760FBD4E91A2341
:10215800C5E9000130463946FEF70EFDD4E91223E1
:10216800FEF754FBD4E91C23C5E902013046394681
:10217800FEF702FDD4E91423FEF748FBD4E91E2339
:10218800C5E9040130463946FEF7F6FCD4E91623C2
:10219800FEF73CFBC5E90601F8BD00BF2DE9F04F8D
:1021A8002DED068BB0EE40AAF0EE60AAB0EE449A90
:1021B800F0EE649A82463648B0EE458AF0EE658ABB
:1021C80087B014468DED002B8DED023B8DED046B31
:1021D80059EC118B0D460023024602E00133202BF7
:1021E80051D012F8011B0029F8D1DFF8ACB003EB8D
:1021F80003170BEBC7064FF0010C00F803C0882249
:102208003046FEF7ABFADDE9002386ED00AB404629
:102218004946FEF7FBFADDE90223FEF7F7FA9DEDE2
:10222800007B86ED0C7B9DED027BC6E90201194B14
:10223800DDE904010022C6E90A8986ED0E7B86EDF8
:10224800049B86ED088BFEF797FCC6E906010FCDC7
:1022580006F1400EAEE80F0095E80F008EE80F007B
:102268000FCC06F1600CACE80F0094E80F00FF00FB
:102278008CE80F008037DAF804305F44CAF804703D
:10228800C6E920A31F6007B0BDEC068BBDE8F08F40
:10229800481500200000E03F480400202DE9F84FD1
:1022A80005682C46844255F8806925D059EC108B76
:1022B8000746803E4FF0000B00F1080AD5E90223DB
:1022C800D5E90001FEF7A2FA42464B46FEF7D0FEDA
:1022D80050B1D5E9203213605A60C5F884B0FB6864
:1022E800FC60C5E920A31C603446354654F8806F6D
:1022F800BC42A6F18006E1D1BDE8F88F2DE9F84F80
:10230800064656F8083F1D469E4255F8804930D08B
:102318005BEC10ABDFF86880803C002741F278095D
:10232800D5E90223D5E90001FEF770FA52465B466B
:10233800FEF794FE04F18002A5EB080390B10E4865
:10234800D5F884C0D91000FB01F14B45D5F88000C1
:1023580098BF0A4BCCF80000C0F804C0C5E9207744
:1023680098BF5F54D4F8803096422546A3F1800484
:10237800D6D1BDE8F88F00BFF1F0F0F04815002085
:1023880048040020044B05480021C3E900114FF41C
:102398001072FEF7E3B900BFD01700209015002097
:1023A80010B50E4A002312F8011F29B10133082B7A
:1023B800F9D10024204610BD094C03EBC30204EBFD
:1023C800C204084A0120D05448222046FEF7C6F924
:1023D800054B0022C4E90A23204610BDCF17002070
:1023E80090150020D01700200000F03F816370474F
:1023F8002DE9F04F2DED0C8B846B8BB0002C00F089
:10240800958103688246002B00F09781B0EE40DA90
:10241800F0EE60DA2368A3F1800B9C424FF00003D2
:10242800D0E90689079300F05D81DA46834606E025
:10243800DAF880309C42A3F1800A00F052819AEDCC
:10244800027BDAE90067B0EE47BAF0EE67BA3246C7
:102458003B4651EC170BFEF7D9F902460B46CDE97E
:10246800082342464B46FEF703FE0028E0D153EC12
:102478001D2B30463946FEF705FE002840F0318115
:1024880042464B4630463946FEF7E8FD002800F044
:1024980048814046494632463B46FEF7B5F98046F4
:1024A800894655EC1D4BDDE908011DEE102A2B4627
:1024B800FEF7F2FD40B11DEE100A32463B462946B2
:1024C800FEF7A2F941EC1B0BDBF8003051465846E9
:1024D80049EC108B9847DBF80030B0EE407AF0EE0C
:1024E800607A51465846B0EE4B0AF0EE6B0A55EC4E
:1024F800174B9847204653EC102BB0EE40CAF0EE2D
:1025080060CA2946FEF7AAFD9BED0C0B002800F0D7
:10251800FA80FDF7F9FE0123069351EC100B904B5E
:102528000022FEF773F941EC180B069B012B00F013
:10253800C480069B013308D153EC1C2B51EC180BBB
:10254800FEF78CFD002840F0C180B0EE4BAAF0EEFB
:102558006BAA55EC1B4B3223404649461BEE102A0A
:1025680005932B4641EC190BFEF750F97D4B0022E1
:10257800FEF702FB804689461CE0304639460022B9
:102588000023FEF789FD18B949EC198B59EC1A8B11
:1025980042464B4643EC1A2B51EC190BFEF736F921
:1025A800704B0022FEF7E8FA059B013B80468946FE
:1025B80005936ED0DBF800305146584649EC108B35
:1025C800984755EC104B53EC182B10EE100A29467F
:1025D800FEF71AF921F000430193009006460F46D2
:1025E80059A3D3E90023DDE90001FEF737FD0028F0
:1025F8004FD157A3D3E9002340464946FEF706F9D1
:10260800DBF8003041EC100B5146584698472246FB
:102618002B4651EC100BFEF7F7F84DA3D3E9002336
:10262800FEF7D4FB21F000430393029004460D46C5
:1026380049A3D3E90023DDE90201FEF70FFD0028D5
:102648009BD122462B4630463946FEF7BFFB024651
:102658000B4640464946FEF7D7F857EC196B19EE7A
:10266800102A3B4604460D46FEF7F8FC002845D1E3
:1026780057EC1A6B1AEE102A3B4620462946FEF7FD
:102688000BFD00283AD1059B013BA046A9460593BE
:1026980090D1079B069801338BED0C8B0793FEF7BF
:1026A80001FA0B46024651EC180BFEF7AFF8069BF1
:1026B800012B41EC180B7FF43CAF53EC1C2B51EC75
:1026C800180BFEF7E9FC00283FF43FAFDAF880303A
:1026D800DBF838409C42DDE90889A3F1800A7FF4E1
:1026E800AEAEDA46DAE90C2307988AED06DBCAE9CA
:1026F80004230BB0BDEC0C8BBDE8F08F4046494677
:1027080032463B464AE7FDF77FFD4FF0FF3306931D
:1027180051EC100B124B0022FEF776F841EC180B27
:1027280003E74FF000084FF00009BAE6079407984E
:102738000BB0BDEC0C8BBDE8F08F079307980BB07E
:10274800BDEC0C8BBDE8F08F95D626E80B2E113E1C
:102758008DEDB5A0F7C6B03E11EA2D819997713D70
:102768000000F03F0000E03F10B588B0044608467E
:102778006946FFF7D9FCD4E91023DDE90001FEF72B
:10278800FBF941EC100B08B010BD00BF10B588B0C4
:10279800044608466946FFF7C7FCD4E91023DDE97B
:1027A8000201FEF7E9F941EC100B08B010BD00BFBB
:1027B80010B588B0044608466946FFF7B5FCD4E969
:1027C8001023DDE90401FEF7D7F941EC100B08B03E
:1027D80010BD00BF10B588B0044608466946FFF72B
:1027E800A3FCD4E91023DDE90601FEF7C5F941ECA5
:1027F800100B08B010BD00BF022910B553EC102B08
:10280800044610D0032926D0012918D0002184EDD0
:10281800100BC16316490020FEF7D8FA154B236048
:10282800C4E90A0110BD84ED100BC16310490020F2
:10283800FEF7CCFA104B2360C4E90A0110BD84ED01
:10284800100BC1630A490020FEF7C0FA0B4B236046
:10285800C4E90A0110BD84ED100BC16304490020CE
:10286800FEF7B4FA064B2360C4E90A0110BD00BFA5
:102878000000F03F71270008B927000895270008D5
:10288800DD270008000000002DE9F04F2DED028B38
:1028980083B005460C461646D0E90023D1E900016D
:1028A8000196FDF7B1FFD5E9022380468946D4E9B0
:1028B8000201FDF7A9FFD5E9042382468B46D4E936
:1028C8000401FDF7A1FFD5E9062341EC180BD4E973
:1028D8000601FDF799FF424606460F464B4640461D
:1028E8004946FEF749F9524604460D465B465046AE
:1028F8005946FEF741F902460B4620462946FDF7A0
:1029080085FF53EC182B04460D4651EC180BFEF7C7
:1029180033F902460B4620462946FDF777FF324633
:1029280004460D463B4630463946FEF725F9024631
:102938000B4620462946FDF769FF41EC100BFDF7D1
:1029480067FD55EC104B29A3D3E9002310EE100ABC
:102958002946FEF783FB002832D122462B4622491E
:102968000020FEF733FA02460B4640464946904699
:102978009946FEF701F9019B4246C3E900014B461F
:1029880050465946FEF7F8F8019B4246C3E9020152
:102998004B4651EC180BFEF7EFF8019B4246C3E992
:1029A80004014B4630463946FEF7E6F8019B45ECF4
:1029B800104BC3E9060103B0BDEC028BBDE8F08FF4
:1029C80000240025019B45EC104BC3E90045C3E9F1
:1029D8000245C3E90445C3E9064503B0BDEC028BD3
:1029E800BDE8F08FAFF300800000F03F95D626E8F1
:1029F8000B2E113E00BFFDE708B50248FFF766F948
:102A080000BFFDE77049000843099B0003F16043DC
:102A180003F5614300F01F00012202FA00F018607C
:102A2800704700BF00F1604000F5644001707047D6
:102A3800EFF3108072B6704710B50C4CFEF7E8FC47
:102A4800FFF792F80A48FFF741F92046FFF73EF9E9
:102A58000848FFF73BF90848FFF738F92046FFF721
:102A680035F90648FFF732F9002010BD88490008FB
:102A78006C4A0008B4490008D8490008F849000819
:102A880008B5FFF7D9FFFEF75DFB1B48FFF71EF9F6
:102A98001A4B23B100F0D0FF1948FFF717F9194B6B
:102AA80023B101F043FD1848FFF710F9174B23B184
:102AB80001F018FE1648FFF709F9164B23B100F08C
:102AC800FFF91548FFF702F9144B1548154C012278
:102AD8001A70FFF7FBF81448FFF7F8F8FEF73CFB0D
:102AE8000CB100F09BFBFEF765FB0028F6D00F4801
:102AF800FFF7ECF830BFFDE7104A0008413A00083C
:102B08002C4A000835450008444A0008ED460008EC
:102B18005C4A0008C92E0008704A0008D81700202F
:102B2800904A000825320008B84A0008C04A000840
:102B38001348144A904208B507D2013A121A22F0F3
:102B4800030204320021FDF709FE0F480F4A9042A4
:102B580007D2013A121A22F003020D490432FDF796
:102B680063FD4FF0E022D2F8883D43F47003C2F8C9
:102B7800883DBFF34F8FBFF36F8FFFF781FF00BF13
:102B8800780000202022002000000020740000208F
:102B98002C4C00082DE9F04F0778202F03460246F9
:102BA80000F10100F8D0092FF6D00D2F32D93B2FB4
:102BB80000F07C81DFF804B31BF8070000F0030085
:102BC800022804BF203FFFB2472F2BD04D2F40F0E3
:102BD800708158783038C4B2092C03F1010300F22F
:102BE80061814FF0000813F8014F08EB880800EBEB
:102BF8004808A4F13000C4B2092CF4D9472F0F704B
:102C0800C1F8048000F03E814D2F77D06FF00500A9
:102C1800BDE8F08F42F20140F840C007CAD56FF016
:102C28000100F5E758783038C4B2092C03F10103E4
:102C3800D7D900230F704B609846964612F8013B8F
:102C4800202BFAD0092BF8D003F0DF02472A73D0E3
:102C58004D2A71D0002B00F0A880F2EE045A01E052
:102C68001EF8013F202BFBD0092BF9D00D2B40F289
:102C7800F3803B2B00F099801BF8032002F003023D
:102C8800022A0EF1010C08BF203B64462078202858
:102C9800224604F10104F9D00928F7D02D2800F0C4
:102CA800EC802B2808BF50784FF0000908BF224657
:102CB8009FED816A0026F0EE467A0132B246F2EEC6
:102CC800046A0FE0002E46D007EE104AB8EEC75A45
:102CD80085EE267A66EEA56A36EE076A4FF0010A97
:102CE80012F8010BA0F13004E5B2092D02F1FF3E04
:102CF800E8D92E2838D1BEBB0126F1E7A8F1680330
:102D08000A2B83D801A050F823F000BF432C0008F9
:102D1800152C0008432C0008432C0008152C00082B
:102D2800432C0008152C0008152C0008152C000849
:102D3800152C0008432C00089EF80130A3F130023E
:102D4800092A0EF1010E85D81EF8013FA3F13002C1
:102D5800092AF9D97EE727EEA57A07EE904AF8EE18
:102D6800E77A77EE877AB9E7BAF1000F7CD076EE8A
:102D7800277AB9F1000F01D0F1EE677ADBB2453B53
:102D8800152B0DD8DFE803F05A4C0C0C0C0C0C0C6E
:102D98000C0C0C0C0C0C3E0C0C0C0C302214E646E3
:102DA8009EF80030002B7FF45DAF0020BDE8F08F67
:102DB80091F82030C1ED047A43F0040381F8203003
:102DC8009EF80030002B7FF44DAFEEE791F82030ED
:102DD800C1ED037A43F0020381F820309EF80030F9
:102DE800002B7FF43FAFE0E791F82030C1ED027A85
:102DF80043F0010381F820309EF80030002B7FF467
:102E080031AFD2E791F82030C1ED077A43F02003C3
:102E180081F820309EF80030002B7FF423AFC4E700
:102E280091F82030C1ED067A43F0100381F8203084
:102E38009EF80030002B7FF415AFB6E791F82030EC
:102E4800C1ED057A43F0080381F820309EF8003080
:102E5800002B7FF407AFA8E742F20142DA40D2071D
:102E68007FF50AAF0020A1E7472F98D1B8F11C0FD2
:102E780095D1DFED117AE64680E750784FF00109E9
:102E8800224615E7B8F11C0F3FF4D7AE04DCB8F1C1
:102E9800010F3FF7BBAED0E6A8F15A03012B3FF66E
:102EA800B5AECAE600230F704B60AFE66FF00200C4
:102EB800AEE66FF00300ABE60000000041480008F2
:102EC800014B00221A707047D9170020002800F023
:102ED8006D8110B50378472B8AB004460DD04D2B71
:102EE80014D14368683B0A2B10D8DFE803F0970F2A
:102EF800788F0F9F0F0F0F0FAA0043685A2B00F00F
:102F0800EC8024DC012B05DC002B27DA6FF00500B0
:102F18000AB010BD1C2BF9D190F820309A0703F0A5
:102F2800010440F102815B0744F0020040F1418155
:102F380044F0060001F09CF8002C40F0FD80AC4BFA
:102F480000221A60AB4B002200201A60E0E75B2BDE
:102F5800DCD1A94B01221A700020D9E709AB08AAD5
:102F680007A906A800F018FEA34B1B78002B00F059
:102F7800BB8094F82030D80700F10F819DED060A38
:102F8800990700F10181DDED070A5A0700F1F38086
:102F98009DED081A180740F1EB80DDED097AD4EDB4
:102FA800051A71EEA71ACDED091AD90600F1DA80D3
:102FB800924BD3ED007A9FED922A87EE822A00F099
:102FC80007FE8B4B8F48079A1A60069C89498E4BDF
:102FD800099A0460089808601A60002098E790F839
:102FE80020309B067DD5D0ED076A9FED887A86EE66
:102FF800870AF7EE007AB4EEE70AF1EE10FA00F36A
:10300800A180B5EEC00AF1EE10FA01D59FED800A55
:10301800002001F06FFB00200AB010BD90F82030AE
:10302800990600F1988000200AB010BD90F8203071
:103038009A0600F18A80002001F000FB00200AB007
:1030480010BD09AB08AA07A906A800F0A5FDDDED8B
:10305800077A9DED087ADDED096A9DED066ADFEDD8
:103068006D5A6D48FDEEE74ABDEEC74AFDEEE63AF9
:10307800BDEEC65AF8EEE31AB8EEC42AF8EEE42A12
:10308800B8EEC53A76EEE16A37EE427A77EEE27A42
:1030980036EE436A66EEA56A27EE257A67EEA57ACC
:1030A80026EE256AFDEEE66ABDEEC77AFDEEE77A02
:1030B800BDEEC66A14EE903A16EE102A15EE101AF6
:1030C800CDED046ACDED033A8DED027A8DED014A1E
:1030D800CDED007AFEF748FEA5E7474B00201870B3
:1030E80016E7B7EE000A93E794F82030DA074ABFEC
:1030F80094ED020A9DED060A8DED060A98074ABF6F
:10310800D4ED030ADDED070ACDED070A59074ABFDA
:1031180094ED041A9DED081A8DED081A1A0727D5A3
:10312800D4ED051ACDED091A3FE758074FD4002C06
:1031380046D1072000F09CFF32492D4A00230B603E
:103148001360FFE6B0EE670A62E790ED070A002019
:1031580001F0F4F96FE790ED070A002001F0EEF9AD
:103168000020D5E6D4ED067A244BC3ED007A22E799
:10317800DDED091A19E7DDED087A94ED041A31EE50
:10318800271A8DED081A05E7DDED077AD4ED030A55
:1031980070EEA70ACDED070AF7E6DDED067A94EDA5
:1031A800020A30EE270A8DED060AE9E64FF0FF30F5
:1031B800704700F05DFFACB90D4B00221A6032E792
:1031C800012000F055FF0F4B00221A602BE744F056
:1031D800040000F04DFF002C3FF4B4AE094B002270
:1031E8001A60AFE60749024A00230B6013601AE72A
:1031F8006418002068180020D917002070000020EB
:1032080000007042601800205C18002000007F4316
:10321800000000000000C842DC4A000800B58BB07E
:10322800FEF79AFD10B90BB05DF804FB1F4880212A
:10323800FEF75EFD0028F6DD2422002101A8FDF737
:103248008DFA1A4801A9FFF7A5FC063006281ED8F2
:10325800DFE800F0161D0F08081D040001A8FFF79D
:1032680035FED8B91248FEF731FD1248FEF72EFD9B
:10327800D9E71148FEF72AFD0E48FEF727FDD2E7E9
:103288000E48FEF723FD0B48FEF720FDCBE70C4860
:10329800FEF71CFD0748FEF719FDC4E70948FEF7CD
:1032A80015FD0448FEF712FDBDE700BFDC1700203E
:1032B800104B00086C4A0008444B00082C4B0008CF
:1032C8005C4B0008144B0008F8B5104E35680F2DFC
:1032D80018DC0F4F0F4B3C68014604EB041003EB5E
:1032E800C00088220134FDF79FF9634203F00F0301
:1032F80004F00F0405F1010558BF5C423C603560DD
:103308000020F8BD4FF0FF30F8BD00BF402100207D
:1033180048210020C0180020F8B50F4E3568BDB10F
:103328000E4F0F4B3C6804EB041103EBC1018822DC
:103338000134FDF779F9634203F00F0304F00F0439
:1033480005F1FF3558BF5C423C6035600020F8BD90
:103358004FF0FF30F8BD00BF40210020442100207D
:10336800C0180020000000002DE9F04F2DED028B61
:103378008F4B97B019680391002900F0C5818D4BD8
:103388001B680F335A4203F00F0A02F00F0358BFAD
:10339800C3F1000A884A0AEB0A1302EBC3034A1E68
:1033A8004FF000084FF00009002AC3E91889049279
:1033B80040F30D81814B019317E079A3D3E90023F2
:1033C80020462946FDF768FE002800F0A980D8E9C4
:1033D8001489059B784A534402EBC303C3E918894F
:1033E800049B013B049300F0EF80019B58680AF1AD
:1033F8000F03D34603F00F0AFDF766FB02460B46A0
:10340800FDF704FA6C4B0BEB0B1603EBC6064FEA01
:103418000B130293D6E91023FDF7AEFB4246044690
:103428000D464B4640464946FDF7A6FB02460B466D
:1034380020462946FDF7EAF941EC100BFCF7E8FFB6
:10344800D6E9164557EC106B10EE102A204629468F
:103458003B46FDF703FE08B126462F46029B564D14
:103468000AEB0A105B44C00005EBC30200F120011F
:1034780029442844C2E91467039206AADC00FFF72E
:1034880003FADDF80C800EAB04F1200129441A463A
:103498004046FFF7F9F94FEA0A130593DDE90601FB
:1034A800DDE90E23FDF768FBDDE9102304460D4630
:1034B800DDE90801FDF760FB02460B462046294678
:1034C800FDF7A4F9DDE9122304460D46DDE90A01FA
:1034D800FDF752FB02460B4620462946FDF796F9B2
:1034E80031A3D3E9002304460D46FDF7B7FD0028B4
:1034F8003FF463AF4FF000084FF000094B463046E9
:1035080039464246FDF7C8FD029B5B44002800F09F
:1035180000819B46284B03EBCB0BCBE9148958E77A
:1035280022462B4626490020FDF76EF90022254B3E
:10353800FDF722FB41EC100BFCF76AFF019BD3ED72
:10354800037A93ED018A67EEA77A55EC104BC7EE24
:10355800887A17EE900AFDF7B7FA804618EE100A37
:103568008946FDF7B1FA02460B4640464946FDF743
:1035780003FB22462B46FDF729FC41EC100BFCF718
:1035880047FF59EC108B10EE102A304639464B464F
:10359800FDF764FD0028B1D0039BD3E9148918E72F
:1035A8002B8716D9CEF7EF3F2B8716D9CEF7EFBF6B
:1035B8004021002048210020C01800209018002039
:1035C8000000F03F0000E03F554B1B680393554B4C
:1035D8001C68039B002B40F3978000230293524BF7
:1035E80001934FF0000A4FF0000B504B04EB041806
:1035F80003EBC808019BC8E91AAB5868FDF764FAE1
:1036080002460B46FDF702F9D8E91023FDF7B4FA94
:10361800524606460F465B4650465946FDF7ACFAF9
:1036280002460B4630463946FDF7F0F841EC100BE0
:10363800FCF7EEFED8E9168957EC106B10EE102A4D
:103648003B464046494625014FF0000A4FF0000B23
:10365800FDF704FD08B146464F46344B05EB040818
:1036680003EBC8083246C8E91C673B463046394672
:10367800FDF782FA019B064698680F46FDF724FA83
:1036880002460B46FDF7C2F8D8E91023FDF774FA95
:1036980002460B4630463946FDF7B6F802460B4659
:1036A80043EC182B00220023FDF7F6FCB0EE480A85
:1036B800F0EE680A18B1FCF7ABFE5BEC10AB1B4AE6
:1036C80002992B1902EBC303D3E918670131029160
:1036D80052465B4630463946FDF7C0FC134B25443D
:1036E800621C03EBC50508B1B246BB46534203F062
:1036F8000F0302F00F0458BF5C42DDE90232934227
:10370800C5E91EAB7FF471AF17B0BDEC028BBDE805
:10371800F08F064A02EBC303D3E9148959E600BFC8
:10372800402100204421002090180020C0180020CB
:103738002DE9F04F83B0DDE90C8904460D4640467B
:103748004946CDE9004592469B46FDF7A5FC002871
:1037580066D052465B4640464946FDF755F8DDE9D6
:103768001023FDF733FB524606460F465B4640469C
:103778004946FDF74BF8754B0022FDF7FDF9324637
:103788003B46FDF7F9F902460B4620462946FDF768
:103798003BF804460D46129B4046C3E9006749467C
:1037A800DDE90E23FDF778FC00283ED0DDE90E2385
:1037B80040464946FDF728F8DDE91023FDF706FBEA
:1037C800DDE90E2306460F4640464946FDF71EF83A
:1037D8005E4B0022FDF7D0F932463B46FDF7CCF9A7
:1037E80002460B4620462946FDF70EF804460D46CC
:1037F800149BC3E900670026002720462946324665
:103808003B46FDF72BFC98B94B46424620462946D5
:10381800FDF7DCFA139BC3E9000103B0BDE8F08FA4
:10382800DDE9004500260027B5E700260027DFE789
:1038380052465B4650465946FDF79EF9DDE90E2390
:1038480004460D4610461946FDF796F902460B4602
:1038580020462946FCF7DAFF3C4B0022FDF78CF99D
:10386800DDE9002304460D46DDE91001FDF784F982
:1038780002460B4620462946FCF7C8FF41EC100BD0
:10388800FCF7C6FD55EC104B10EE102A5046594671
:103898002B46FDF701FC50B3DDE90E23504659468F
:1038A800FDF7DCFB002845D154465D4630463946D5
:1038B800129B2246C3E90001DDE90E012B46FDF704
:1038C800CDFB68B3DDE90E2320462946FCF79CFFB3
:1038D800DDE91023FDF77AFA149BC3E90001139977
:1038E80000220023C1E9002303B0BDE8F08FDDE921
:1038F8000E0122462B46FDF7CFFBA0B922462B46E8
:1039080050465946FDF7AAFBE8B152465B462046A9
:103918002946FCF779FFDDE91023FDF757FAC7E7D9
:1039280000200021D8E7DDE90E2350465946FDF76F
:1039380095FB10B1DDE90E45E7E7129B3046C3E978
:1039480000673946C8E730463946B1E70000E03F2E
:103958002DE9F0472D4D2E4CDFF8B8A0BCB04CE057
:10396800DDE93423CDE90A2310AB08930EAB686870
:1039780007930CABDDE92A670693FDF7A5F89DEDE3
:10398800387B8046894630463946DDE936678DED15
:10399800027BDDE90A23CDE90489CDE90067FFF759
:1039A800C7FE12AA22A91AA8FEF76EFF6868FDF7DB
:1039B8008BF894ED000B41EC160B9DED365B9DEDFD
:1039C800344B9DED103B9DED0E2B9DED0C1BDAF855
:1039D800000012AA1AA9FEF7E1FBDDE90E23DDE9D2
:1039E8000C01FCF713FFDDE91023FCF70FFFD4E906
:1039F8000023FCF70BFFC4E900011AA8FFF78CFCB1
:103A08000028ADD03CB0BDE8F08700BF901800207A
:103A1800A0210020982100200121054A8842117424
:103A280003D0022801D000B17047FDF7C9BB00BF21
:103A3800A0180020000000002DE9F041404F3C781C
:103A48000CB1BDE8F081FEF749FAFEF79BFCFEF7E2
:103A580053FADFF84081C8F800000028F1D0394B4C
:103A6800394A1A60394A5A60394A9A60394ADA60DA
:103A7800394B3A4D3A4E00200021C3E90001C3E911
:103A88000201C3E904012AA1D1E90001C3E9060141
:103A9800344B35490020C3E90001C3E90201334929
:103AA8000020C3E9040124A1D1E90001C3E906010A
:103AB8002F4B0022C5E90023C5E902232D4B002224
:103AC800C5E904232C4B0022C5E90623FEF768FC50
:103AD800214646F8040B013448B195ED000BFEF77A
:103AE8008BFED8F8001056F8040CFEF77FFC042C67
:103AF80005F10805EAD121492148224C002200237A
:103B0800C1E90023C0E90023C1E90223C1E9042374
:103B1800C1E906231C4A1D491D4800230B60138078
:103B280001211374236003603970BDE8F08100BF80
:103B38000000000065CDCDC10000000065CDCD417D
:103B4800B8180020901800200000484300803B452A
:103B58000080BB440000A04070210020B821002054
:103B6800A82100205021002000806B4000406F40B9
:103B78000000544000007940004057407018002071
:103B8800A021002044210020A01800204821002066
:103B98004021002098210020034690B10A4A92ED66
:103BA800007B83ED007B92ED027B83ED027B92ED3F
:103BB800047B83ED047B92ED067B002083ED067B7E
:103BC80070474FF0FF307047701800200000000069
:103BD800002800F0BA819E4B1B68002B00F0B881CA
:103BE8002DE9F04F2DED048BDFF87CB2DFB0824673
:103BF800DBE90023D0E90001B0EE408AFCF704FEBF
:103C0800DBE9022306460F46DAE90201FCF7FCFD70
:103C1800DBE9042380468946DAE90401FCF7F4FD70
:103C2800DBE9062341EC190BDAE90601FCF7ECFDA8
:103C3800324604460D463B4630463946FCF79CFF63
:103C4800424606460F464B4640464946FCF794FF17
:103C580002460B4630463946FCF7D8FD53EC192B83
:103C680006460F4619EE100A1946FCF785FF02466C
:103C78000B4630463946FCF7C9FD224606460F4634
:103C88002B4620462946FCF777FF02460B4630466E
:103C98003946FCF7BBFD41EC100BFCF7B9FB68A3F8
:103CA800D3E9002351EC100B8DED0A0BFDF7D6F983
:103CB800002840F0B080674ED6ED008A18EE900AD2
:103CC800FCF702FFF4EEC88AF1EE10FA04460D463E
:103CD80000F1A78018EE100AFCF7F6FE8046894628
:103CE80059A3D3E9002340464946FDF7B7F908B17F
:103CF800A046A9469AED007B574CB0EE478AF0EEF5
:103D0800678AD4E9002351EC170BFDF7A7F90028BF
:103D180040F01881514F51EC180BD7E90023FDF7FB
:103D2800BBF9002840F00E819AED026BD4E902231A
:103D3800B0EE469AF0EE669A51EC160BFDF78EF946
:103D4800002840F0FF80D7E9022351EC190BFDF75A
:103D5800A3F9002840F0F680D4E90423DAE9044501
:103D680020462946FDF77AF9002840F0EB80D7E98C
:103D7800042320462946FDF78FF9002840F0E28009
:103D880001238DF8E830DBE90023CDE91A23DBE9CC
:103D98000223CDE91C23DBE90423CDE91E23DBE95B
:103DA8000623CDE92023DAE906239DED0A7BCDE938
:103DB80028231AA8002200238DED228B8DED249B49
:103DC800CDE926458DED2A7BCDE92C89CDE93089D1
:103DD800CDE92E89CDE93289CDE93689CDE934237B
:103DE800CDE93823FFF770FA002840F09E80DAE921
:103DF8000201DAE90023CBE90201DAE90401184CEF
:103E0800CBE90023CBE904012368DAE906010D2B8D
:103E1800CBE9060108DC00205FB0BDEC048BBDE8EF
:103E2800F08F804689465BE7FFF79EFA23680D4FBF
:103E3800022B69DD0DF140090EAD0DF1300818E0D7
:103E48008DEDB5A0F7C6B03EFCA9F1D24D62503F4A
:103E58009821002090180020702100205021002077
:103E680040210020A0210020701800202368022B88
:103E78004ADD3CA8FFF750FA0028F7D1CDE90759E9
:103E8800CDF818807068FCF71FFEDDE95AABCDE964
:103E980002ABDDE958ABDDE95623CDE90401CDE9F4
:103EA80000ABDDE94C01FFF743FC12AA44A93CA88A
:103EB800FEF7EAFC7068FCF707FE274B41EC160B8F
:103EC8009DED103B95ED002B15ED021B97ED000BBA
:103ED8009DED585B9DED564B186812AA3CA9FEF75C
:103EE8005DF9D5E9002355E90201FCF78FFCDDE90E
:103EF8001023FCF78BFCD7E90023FCF787FC236829
:103F0800022BC7E90001B4DC144C97ED008B04F1D7
:103F1800100554F8040BB0EE480AF0EE680A08B130
:103F2800FEF766FAA542F4D175E7FFF71DFAFFF729
:103F38000FFD1AA8FFF7C8F900283FF458AF6FF033
:103F4800020069E76FF0010066E74FF0FF30704745
:103F58006FF00200704700BF98210020A8210020C0
:103F680070B52DED028BFFF7FFF9FFF7F1FC1E4B43
:103F78001E4C93ED008B04F1100554F8040BB0EEC1
:103F8800480AF0EE680A08B1FEF732FAAC42F4D1FA
:103F98000020FDF735F90346012043B1FDF7DCF8B1
:103FA8000020FDF72DF903460120002BF6D1FDF77F
:103FB80027F903460220002BF0D1FDF721F903462B
:103FC8000320002BEAD1FDF71BF90028E6D1084BA6
:103FD8001B6833B1BDEC028B064ABDE8704010681F
:103FE8001847BDEC028B70BDA0210020A82100203D
:103FF800942100209021002070B5184E184C2DED0A
:10400800028BFFF7B1F9FFF7A3FC96ED008B04F1E3
:10401800100554F8040BB0EE480AF0EE680A08B12F
:10402800FEF7E6F9AC42F4D10E4C206890B196ED5B
:10403800000BFEF733F9D6E900010B4B0022FCF721
:10404800E3FBBDEC028B41EC100B2068BDE870402F
:10405800FEF754B9BDEC028B70BD00BFA021002053
:10406800A8210020982100200000F03F0000000057
:104078002DE9F04F06469BB0FFF772FF16F00103DB
:10408800009340F02A8116F0020540F01D8116F0D9
:104098000403019340F00F819D4CDFF890A2DFF8F4
:1040A80090B266700023237401232370DAE9002399
:1040B800C4E90223DBE90023CDE90223DBE902237B
:1040C800CDE90423DBE90423CDE90623DBE9062354
:1040D800CDE90823009B8F4E002B40F0D280D6E913
:1040E80000893DB1D6E902018B4B0022FCF78CFB1D
:1040F800CDE90401019B3BB1D6E90401864B0022BE
:10410800FCF782FBCDE906017FA1D1E90001834AD2
:104118000AABE3E8028912AE9E4242E9020102D0EC
:10412800F2E80289F5E7B3EE040A02A8FFF750FDAA
:10413800FFF762FFDAE90067794B0022304639461B
:10414800FCF764FB237C80468946EBB932463B4644
:1041580040464946FCF7A0FFB0B1009B002B70D148
:10416800002D78D1019B002B40F08180FCF7F4FFF3
:10417800237C4BB9DAE90067404632463B4649465C
:10418800FCF78AFF0028E8D10AAFFDF727F80FCF20
:10419800604E94F810C00FC697E80F0086E80F002D
:1041A800BCF1000F00F0A2800223237000232374C7
:1041B800DBE90023CDE91223DBE90223CDE914234F
:1041C800DBE90423CDE91623DBE90623CDE918232F
:1041D800009B1BB1534B0022CDE912231DB1514B5B
:1041E8000022CDE91423019B1BB14E4B0022CDE9DF
:1041F8001623009B1BB100220023CBE900231DB12D
:1042080000220023CBE90223019B1BB100220023DB
:10421800CBE90423B2EE040A12A8FFF7D9FCFFF792
:10422800EBFEFFF79DFE009B002B35D1002D38D10A
:10423800019B002B3BD10423237000201BB0BDE859
:10424800F08F0020FCF7ECFF002889D04FF0010325
:104258002374002D86D00120FCF7E2FF002881D0CE
:104268004FF001032374019B002B3FF47FAF022022
:10427800FCF7D6FF00283FF479AF4FF00103237411
:1042880074E7D6E90089244B002240464946FCF7EA
:10429800BBFACDE9020124E70020FCF7D7FF002D87
:1042A800C6D00120FCF7D2FF019B002BC3D002200F
:1042B800FCF7CCFFBFE71C4900220220FCF7D0FF27
:1042C8000220FCF7B7FFE7E6174901200022FCF7B8
:1042D800C7FF0120FCF7AEFFD9E6002210461249BD
:1042E800FCF7BEFF0020FCF7A5FFCCE605232370F2
:1042F800009B2BB925BB019BE3B96FF004009DE738
:104308006046FCF7A3FFF5E70000000065CDCDC1CE
:10431800A0180020702100200000244078210020EF
:1043280000003E4000001440213A0008A02100206F
:10433800701800200220FCF789FF6FF004007DE769
:104348000120FCF783FFD6E72DE9F04F4FF0000975
:1043580085B0FDF7F3F9294DDFF8AC80284CFCF760
:10436800AFFF4846072805F114074FF0000B4FF040
:10437800140A4FF47A762BD9092837D9A0F10A0301
:104388000F2843F020032CD9FF2301A94846CDE983
:1043980002638DF804A0FCF7B5FF01230022BD429B
:1043A800C4F800B0C4F804B0C4F808B0C4F80CB03D
:1043B800C4F810B02375627504F118040CD0287D78
:1043C80095F815A018F8019B072805F11405D3D80E
:1043D8000721FDF7BBF9D7E70A4A137005B0BDE816
:1043E800F08FD8B20721FDF7B1F9CDE7083840F0D2
:1043F80010000721C0B2FDF7A9F9C5E7704B000806
:10440800D821002008220020994B000838B5404BDD
:104418001B780446002B3DD03E4B04EB840213F876
:104428002200072808D9092828D90F2823D8A0F15D
:104438000A0343F02003D8B2FDF714FAB0F5805F01
:10444800024618D2162A32DD40F6AC439A4224DCE2
:10445800314D0123172102E035F8231003468A4223
:1044680003F1FF3E03F1010003DB35F823C0624589
:1044780020DD202BF0D19FED290A38BDA0F10803DB
:1044880043F01003D8B2FDF7EDF9B0F5805F0246AE
:10449800D8D3F0E7FFF758FFBEE79FED210A214B7D
:1044A80004EB440403EBC40484ED000A38BD9FED1B
:1044B8001E0AF4E7521AACEB010107EE902A07EE48
:1044C800101AF8EEE77AB8EEC77A05EB8E0EC7EE4B
:1044D800876A05EB8303BEF90220B3F902309B1A01
:1044E80007EE902AF8EEE75A07EE903AF8EEE77AE8
:1044F800B2EE046A66EEA77A9FED087A77EEA57A9F
:1045080087EE860AB4EE470AF1EE10FAC7D1B2E791
:1045180008220020704B00089C4B000800C079C49A
:1045280000000000D821002000009643024B1B78B1
:1045380003B17047FFF708BF08220020012841D8BF
:1045480070B5B5EEC00AF1EE10FA82B0044636D462
:10455800DFED357AB4EE670AF1EE10FAC8BFB0EEB7
:10456800670A324D04EB440305EBC303D3ED017A2C
:1045780070EE677A6600F5EEC07AF1EE10FA48BF81
:10458800F1EE677AB2EE047A3319F4EEC77A05EBE6
:10459800C303F1EE10FA83ED010A02DD0022DA60AE
:1045A8009A60DFED237AB4EEE70AF1EE10FA0AD941
:1045B800264405EBC6056B7D63B302B070BD9FED65
:1045C8001C0ACEE77047331905EBC303194AC3ED3C
:1045D800037AC3ED027AC3ED047A04EB840302EB99
:1045E800830393ED010A1449B4EEE70AF1EE10FAD9
:1045F800085D019058BFB0EE670AFCF7DDFE019830
:104608000021FCF7ABFE344405EBC40500236B75B1
:1046180002B070BD084B0121185DFCF79FFE012315
:104628006B7502B070BD00BF00009643D821002012
:1046380000000000704B0008984B0008012801D9C1
:104648000020704710B50446FFF7E0FE104804EB61
:10465800440400EBC404D4ED017AF5EEC07AF1EE1F
:1046680010FA12D930EE670AF0EE087AB5EEC00AF1
:10467800F1EE10FA48BFB1EE400AB4EEE70AF1EEE7
:1046880010FA94BF0120002010BD012010BD00BF0A
:10469800D8210020F0B585B0FCF712FE0F4C282772
:1046A800FF25162301A90220CDE9027500268DF801
:1046B8000430FCF727FE03951723012501A90320E1
:1046C8008DF8043002972660A580FCF71BFE044B8A
:1046D800A660A5811D7005B0F0BD00BF0C220020AA
:1046E8001C220020024B1B7803B17047FFF7D2BF92
:1046F8001C220020012842D870B52DED028B3E4BBC
:104708001B7882B00646B0EE408A002B4FD0B5EE3B
:10471800C08AF1EE10FA4FF0000331D4F7EE007AB8
:10472800364CB4EEE78AF1EE10FA4FEAC60504EB10
:10473800C60311DDC3ED007A5B79002B41D0304B05
:10474800985DB0EE678AB0EE480A02B0BDEC028B05
:10475800BDE87040FCF730BEB5EEC08AF1EE10FA45
:1047680083ED008A11D95B796BB3254BB5EEC08A0E
:10477800F1EE10FA985D35D59FED228AE3E7704790
:104788001E4C04EBC602F50013601D4B9FED1D0A7D
:10479800985D0190FCF710FE01980021FCF7DEFD02
:1047A8002C440023637102B0BDEC028B70BDFFF78F
:1047B80071FFB5EEC08AF1EE10FA4FF00003ADD5E7
:1047C800DEE7B0EE678A0E4B0121985D01902C441C
:1047D800FCF7C4FDB5EEC08A0123F1EE10FA01988A
:1047E8006371C9D4F7EE007AB4EE678AF1EE10FA75
:1047F800C8BFB0EE678AA6E71C2200200C22002062
:10480800204C000800000000F8B500BFF8BC08BC48
:104818009E467047F8B500BFF8BC08BC9E46704776
:104828000100030000000000010103010000000076
:104838000200030107000000002020202020202083
:104848002020282828282820202020202020202038
:104858002020202020202020208810101010101048
:104868001010101010101010100404040404040494
:10487800040404101010101010104141414141412E
:104888000101010101010101010101010101010110
:104898000101010110101010101042424242424220
:1048A80002020202020202020202020202020202E0
:1048B8000202020210101010200000000000000088
:1048C80000000000000000000000000000000000E0
:1048D80000000000000000000000000000000000D0
:1048E80000000000000000000000000000000000C0
:1048F80000000000000000000000000000000000B0
:10490800000000000000000000000000000000009F
:10491800000000000000000000000000000000008F
:10492800000000000000000000000000000000007F
:10493800000000000000000000000000000002402D
:104948000004024000080240000C0240001002402F
:104958000014024000180240001C024000200240DF
:1049680009021A000A031B000D0A212121204861AF
:1049780072644661756C74202121210D0A000000C3
:104988003D3D3D3D3D3D3D3D3D3D3D3D3D3D3D3D4F
:104998003D3D3D3D3D3D3D3D3D3D3D3D3D3D3D3D3F
:1049A8003D3D3D3D3D3D3D3D0D0A000020204B6C09
:1049B8006970706572204D4355204669726D776144
:1049C80072652076302E312E302D6D76700D0A00EE
:1049D80020204275696C643A204A616E2032382082
:1049E800323032362031313A31363A34310D0A001C
:1049F800426F61726420696E697469616C697A6575
:104A0800642E0D0A000000005363686564756C65C8
:104A18007220696E697469616C697A65642E0D0A21
:104A280000000000546F6F6C6865616420696E69EE
:104A38007469616C697A65642E0D0A004865617451
:104A4800657220696E697469616C697A65642E0D96
:104A58000A00000046616E20696E697469616C69BC
:104A68007A65642E0D0A0000472D636F6465207017
:104A7800617273657220696E697469616C697A65BF
:104A8800642E0D0A000000000D0A53797374656DD9
:104A98002072656164792E20456E746572696E674F
:104AA800206D61696E206C6F6F702E2E2E0D0A00BE
:104AB8006F6B0D0A000000000D0A21212120537997
:104AC8007374656D2073687574646F776E20212127
:104AD800210D0A00583A252E32642E2530326420E2
:104AE800593A252E32642E25303264205A3A252E22
:104AF80032642E2530326420453A252E32642E2524
:104B08003032640D0A0000006F6B00006572726F2E
:104B1800723A20657865637574696F6E206661699D
:104B28006C6564006572726F723A20756E6B6E6F99
:104B3800776E20636F6D6D616E6400006572726FD1
:104B4800723A20696E76616C696420636F6D6D617D
:104B58006E6400006572726F723A207061727365DC
:104B6800206572726F720000001400000000803F20
:104B78009A99B141713D8A3F0000E4420115000055
:104B88000000803F000058420000003F00004843FA
:104B9800000100001700B80B1F00540B2900F00A91
:104BA80036008C0A4700280A5D00C40978006009AD
:104BB8009A00FC08C4009808F80034083701D007A8
:104BC80082016C07DB0108074202A406B80240060E
:104BD8003D03DC05D0037805700414051B05B004FB
:104BE800CE054C048606E8033F078403F507200337
:104BF800A508BC024B095802E609F401740A9001A1
:104C0800F40A2C01660BC800CA0B6400210C0000D2
:0C4C18006C0C9CFFAC0C38FF0203000089
:044C2400F101000892
:044C2800C9010008B6
:104C2C00FF00000008000020000000000000000051
:104C3C000000000000000000000000000000000068
:104C4C000000000000000000000000000000000058
:104C5C000000000000000000000000000000000048
:104C6C000000000000000000000000000000000038
:104C7C000000000000000000000000000000000028
:104C8C0000000000000000000010014025000000A2
:044C9C0000803B4514
:0400000508002B398B
:00000001FF
